{
  "_format": "hh-sol-artifact-1",
  "contractName": "NFTMarketplace",
  "sourceName": "contracts/NFTMarket.sol",
  "abi": [
    {
      "inputs": [],
      "stateMutability": "nonpayable",
      "type": "constructor"
    },
    {
      "anonymous": false,
      "inputs": [
        {
          "indexed": true,
          "internalType": "address",
          "name": "owner",
          "type": "address"
        },
        {
          "indexed": true,
          "internalType": "address",
          "name": "approved",
          "type": "address"
        },
        {
          "indexed": true,
          "internalType": "uint256",
          "name": "tokenId",
          "type": "uint256"
        }
      ],
      "name": "Approval",
      "type": "event"
    },
    {
      "anonymous": false,
      "inputs": [
        {
          "indexed": true,
          "internalType": "address",
          "name": "owner",
          "type": "address"
        },
        {
          "indexed": true,
          "internalType": "address",
          "name": "operator",
          "type": "address"
        },
        {
          "indexed": false,
          "internalType": "bool",
          "name": "approved",
          "type": "bool"
        }
      ],
      "name": "ApprovalForAll",
      "type": "event"
    },
    {
      "anonymous": false,
      "inputs": [
        {
          "indexed": true,
          "internalType": "uint256",
          "name": "tokenId",
          "type": "uint256"
        },
        {
          "indexed": false,
          "internalType": "address",
          "name": "seller",
          "type": "address"
        },
        {
          "indexed": false,
          "internalType": "address",
          "name": "owner",
          "type": "address"
        },
        {
          "indexed": false,
          "internalType": "uint256",
          "name": "price",
          "type": "uint256"
        },
        {
          "indexed": false,
          "internalType": "bool",
          "name": "sold",
          "type": "bool"
        }
      ],
      "name": "MarketItemCreated",
      "type": "event"
    },
    {
      "anonymous": false,
      "inputs": [
        {
          "indexed": true,
          "internalType": "address",
          "name": "from",
          "type": "address"
        },
        {
          "indexed": true,
          "internalType": "address",
          "name": "to",
          "type": "address"
        },
        {
          "indexed": true,
          "internalType": "uint256",
          "name": "tokenId",
          "type": "uint256"
        }
      ],
      "name": "Transfer",
      "type": "event"
    },
    {
      "inputs": [
        {
          "internalType": "address",
          "name": "to",
          "type": "address"
        },
        {
          "internalType": "uint256",
          "name": "tokenId",
          "type": "uint256"
        }
      ],
      "name": "approve",
      "outputs": [],
      "stateMutability": "nonpayable",
      "type": "function"
    },
    {
      "inputs": [
        {
          "internalType": "address",
          "name": "owner",
          "type": "address"
        }
      ],
      "name": "balanceOf",
      "outputs": [
        {
          "internalType": "uint256",
          "name": "",
          "type": "uint256"
        }
      ],
      "stateMutability": "view",
      "type": "function"
    },
    {
      "inputs": [
        {
          "internalType": "uint256",
          "name": "_tokenId",
          "type": "uint256"
        }
      ],
      "name": "createMarketSale",
      "outputs": [],
      "stateMutability": "payable",
      "type": "function"
    },
    {
      "inputs": [
        {
          "internalType": "string",
          "name": "tokenURI",
          "type": "string"
        },
        {
          "internalType": "uint256",
          "name": "price",
          "type": "uint256"
        }
      ],
      "name": "createToken",
      "outputs": [
        {
          "internalType": "uint256",
          "name": "",
          "type": "uint256"
        }
      ],
      "stateMutability": "payable",
      "type": "function"
    },
    {
      "inputs": [
        {
          "internalType": "uint256",
          "name": "tokenId",
          "type": "uint256"
        }
      ],
      "name": "getApproved",
      "outputs": [
        {
          "internalType": "address",
          "name": "",
          "type": "address"
        }
      ],
      "stateMutability": "view",
      "type": "function"
    },
    {
      "inputs": [],
      "name": "getItemListed",
      "outputs": [
        {
          "components": [
            {
              "internalType": "uint256",
              "name": "tokenId",
              "type": "uint256"
            },
            {
              "internalType": "address payable",
              "name": "seller",
              "type": "address"
            },
            {
              "internalType": "address payable",
              "name": "owner",
              "type": "address"
            },
            {
              "internalType": "uint256",
              "name": "price",
              "type": "uint256"
            },
            {
              "internalType": "bool",
              "name": "sold",
              "type": "bool"
            }
          ],
          "internalType": "struct NFTMarketplace.MarketItem[]",
          "name": "",
          "type": "tuple[]"
        }
      ],
      "stateMutability": "view",
      "type": "function"
    },
    {
      "inputs": [],
      "name": "getListingPrice",
      "outputs": [
        {
          "internalType": "uint256",
          "name": "",
          "type": "uint256"
        }
      ],
      "stateMutability": "view",
      "type": "function"
    },
    {
      "inputs": [],
      "name": "getMarketItems",
      "outputs": [
        {
          "components": [
            {
              "internalType": "uint256",
              "name": "tokenId",
              "type": "uint256"
            },
            {
              "internalType": "address payable",
              "name": "seller",
              "type": "address"
            },
            {
              "internalType": "address payable",
              "name": "owner",
              "type": "address"
            },
            {
              "internalType": "uint256",
              "name": "price",
              "type": "uint256"
            },
            {
              "internalType": "bool",
              "name": "sold",
              "type": "bool"
            }
          ],
          "internalType": "struct NFTMarketplace.MarketItem[]",
          "name": "",
          "type": "tuple[]"
        }
      ],
      "stateMutability": "view",
      "type": "function"
    },
    {
      "inputs": [
        {
          "internalType": "address",
          "name": "_acessAddress",
          "type": "address"
        }
      ],
      "name": "getMyNFT",
      "outputs": [
        {
          "components": [
            {
              "internalType": "uint256",
              "name": "tokenId",
              "type": "uint256"
            },
            {
              "internalType": "address payable",
              "name": "seller",
              "type": "address"
            },
            {
              "internalType": "address payable",
              "name": "owner",
              "type": "address"
            },
            {
              "internalType": "uint256",
              "name": "price",
              "type": "uint256"
            },
            {
              "internalType": "bool",
              "name": "sold",
              "type": "bool"
            }
          ],
          "internalType": "struct NFTMarketplace.MarketItem[]",
          "name": "",
          "type": "tuple[]"
        }
      ],
      "stateMutability": "view",
      "type": "function"
    },
    {
      "inputs": [
        {
          "internalType": "uint256",
          "name": "_tokenId",
          "type": "uint256"
        }
      ],
      "name": "getprice",
      "outputs": [
        {
          "internalType": "uint256",
          "name": "",
          "type": "uint256"
        }
      ],
      "stateMutability": "view",
      "type": "function"
    },
    {
      "inputs": [
        {
          "internalType": "address",
          "name": "owner",
          "type": "address"
        },
        {
          "internalType": "address",
          "name": "operator",
          "type": "address"
        }
      ],
      "name": "isApprovedForAll",
      "outputs": [
        {
          "internalType": "bool",
          "name": "",
          "type": "bool"
        }
      ],
      "stateMutability": "view",
      "type": "function"
    },
    {
      "inputs": [],
      "name": "name",
      "outputs": [
        {
          "internalType": "string",
          "name": "",
          "type": "string"
        }
      ],
      "stateMutability": "view",
      "type": "function"
    },
    {
      "inputs": [
        {
          "internalType": "uint256",
          "name": "tokenId",
          "type": "uint256"
        }
      ],
      "name": "ownerOf",
      "outputs": [
        {
          "internalType": "address",
          "name": "",
          "type": "address"
        }
      ],
      "stateMutability": "view",
      "type": "function"
    },
    {
      "inputs": [
        {
          "internalType": "uint256",
          "name": "tokenId",
          "type": "uint256"
        },
        {
          "internalType": "uint256",
          "name": "price",
          "type": "uint256"
        }
      ],
      "name": "resellToken",
      "outputs": [],
      "stateMutability": "payable",
      "type": "function"
    },
    {
      "inputs": [
        {
          "internalType": "address",
          "name": "from",
          "type": "address"
        },
        {
          "internalType": "address",
          "name": "to",
          "type": "address"
        },
        {
          "internalType": "uint256",
          "name": "tokenId",
          "type": "uint256"
        }
      ],
      "name": "safeTransferFrom",
      "outputs": [],
      "stateMutability": "nonpayable",
      "type": "function"
    },
    {
      "inputs": [
        {
          "internalType": "address",
          "name": "from",
          "type": "address"
        },
        {
          "internalType": "address",
          "name": "to",
          "type": "address"
        },
        {
          "internalType": "uint256",
          "name": "tokenId",
          "type": "uint256"
        },
        {
          "internalType": "bytes",
          "name": "_data",
          "type": "bytes"
        }
      ],
      "name": "safeTransferFrom",
      "outputs": [],
      "stateMutability": "nonpayable",
      "type": "function"
    },
    {
      "inputs": [
        {
          "internalType": "address",
          "name": "operator",
          "type": "address"
        },
        {
          "internalType": "bool",
          "name": "approved",
          "type": "bool"
        }
      ],
      "name": "setApprovalForAll",
      "outputs": [],
      "stateMutability": "nonpayable",
      "type": "function"
    },
    {
      "inputs": [
        {
          "internalType": "bytes4",
          "name": "interfaceId",
          "type": "bytes4"
        }
      ],
      "name": "supportsInterface",
      "outputs": [
        {
          "internalType": "bool",
          "name": "",
          "type": "bool"
        }
      ],
      "stateMutability": "view",
      "type": "function"
    },
    {
      "inputs": [],
      "name": "symbol",
      "outputs": [
        {
          "internalType": "string",
          "name": "",
          "type": "string"
        }
      ],
      "stateMutability": "view",
      "type": "function"
    },
    {
      "inputs": [
        {
          "internalType": "uint256",
          "name": "tokenId",
          "type": "uint256"
        }
      ],
      "name": "tokenURI",
      "outputs": [
        {
          "internalType": "string",
          "name": "",
          "type": "string"
        }
      ],
      "stateMutability": "view",
      "type": "function"
    },
    {
      "inputs": [
        {
          "internalType": "address",
          "name": "from",
          "type": "address"
        },
        {
          "internalType": "address",
          "name": "to",
          "type": "address"
        },
        {
          "internalType": "uint256",
          "name": "tokenId",
          "type": "uint256"
        }
      ],
      "name": "transferFrom",
      "outputs": [],
      "stateMutability": "nonpayable",
      "type": "function"
    },
    {
      "inputs": [
        {
          "internalType": "uint256",
          "name": "_listingPrice",
          "type": "uint256"
        }
      ],
      "name": "updateListingPrice",
      "outputs": [],
      "stateMutability": "payable",
      "type": "function"
    }
  ],
  "bytecode": "0x60806040526658d15e176280006009553480156200001c57600080fd5b506040518060400160405280600e81526020017f4d696c6b7957617920546f6b656e0000000000000000000000000000000000008152506040518060400160405280600281526020017f4d540000000000000000000000000000000000000000000000000000000000008152508160009080519060200190620000a192919062000104565b508060019080519060200190620000ba92919062000104565b50505033600a60006101000a81548173ffffffffffffffffffffffffffffffffffffffff021916908373ffffffffffffffffffffffffffffffffffffffff16021790555062000219565b8280546200011290620001b4565b90600052602060002090601f01602090048101928262000136576000855562000182565b82601f106200015157805160ff191683800117855562000182565b8280016001018555821562000182579182015b828111156200018157825182559160200191906001019062000164565b5b50905062000191919062000195565b5090565b5b80821115620001b057600081600090555060010162000196565b5090565b60006002820490506001821680620001cd57607f821691505b60208210811415620001e457620001e3620001ea565b5b50919050565b7f4e487b7100000000000000000000000000000000000000000000000000000000600052602260045260246000fd5b61442180620002296000396000f3fe6080604052600436106101355760003560e01c806372b3b620116100ab578063be9af5361161006f578063be9af5361461041e578063bf7769281461043a578063c87b56dd14610477578063e1bd88c2146104b4578063e219fc75146104f1578063e985e9c51461050d57610135565b806372b3b6201461035557806395d89b4114610385578063a22cb465146103b0578063ae677aa3146103d9578063b88d4fde146103f557610135565b806312e85585116100fd57806312e855851461023357806323b872dd1461025e57806329aa3a421461028757806342842e0e146102b25780636352211e146102db57806370a082311461031857610135565b806301ffc9a71461013a57806306fdde03146101775780630800144b146101a2578063081812fc146101cd578063095ea7b31461020a575b600080fd5b34801561014657600080fd5b50610161600480360381019061015c9190612f07565b61054a565b60405161016e91906135e1565b60405180910390f35b34801561018357600080fd5b5061018c61062c565b60405161019991906135fc565b60405180910390f35b3480156101ae57600080fd5b506101b76106be565b6040516101c491906135bf565b60405180910390f35b3480156101d957600080fd5b506101f460048036038101906101ef9190612fad565b6109eb565b6040516102019190613513565b60405180910390f35b34801561021657600080fd5b50610231600480360381019061022c9190612ecb565b610a70565b005b34801561023f57600080fd5b50610248610b88565b60405161025591906138de565b60405180910390f35b34801561026a57600080fd5b5061028560048036038101906102809190612dc5565b610b92565b005b34801561029357600080fd5b5061029c610bf2565b6040516102a991906135bf565b60405180910390f35b3480156102be57600080fd5b506102d960048036038101906102d49190612dc5565b610e9b565b005b3480156102e757600080fd5b5061030260048036038101906102fd9190612fad565b610ebb565b60405161030f9190613513565b60405180910390f35b34801561032457600080fd5b5061033f600480360381019061033a9190612d60565b610f6d565b60405161034c91906138de565b60405180910390f35b61036f600480360381019061036a9190612f59565b611025565b60405161037c91906138de565b60405180910390f35b34801561039157600080fd5b5061039a611067565b6040516103a791906135fc565b60405180910390f35b3480156103bc57600080fd5b506103d760048036038101906103d29190612e8f565b6110f9565b005b6103f360048036038101906103ee9190612fad565b61110f565b005b34801561040157600080fd5b5061041c60048036038101906104179190612e14565b6111a9565b005b61043860048036038101906104339190612fad565b61120b565b005b34801561044657600080fd5b50610461600480360381019061045c9190612fad565b611444565b60405161046e91906138de565b60405180910390f35b34801561048357600080fd5b5061049e60048036038101906104999190612fad565b611464565b6040516104ab91906135fc565b60405180910390f35b3480156104c057600080fd5b506104db60048036038101906104d69190612d60565b6115b6565b6040516104e891906135bf565b60405180910390f35b61050b60048036038101906105069190612fd6565b6118e5565b005b34801561051957600080fd5b50610534600480360381019061052f9190612d89565b611ada565b60405161054191906135e1565b60405180910390f35b60007f80ac58cd000000000000000000000000000000000000000000000000000000007bffffffffffffffffffffffffffffffffffffffffffffffffffffffff1916827bffffffffffffffffffffffffffffffffffffffffffffffffffffffff1916148061061557507f5b5e139f000000000000000000000000000000000000000000000000000000007bffffffffffffffffffffffffffffffffffffffffffffffffffffffff1916827bffffffffffffffffffffffffffffffffffffffffffffffffffffffff1916145b80610625575061062482611b6e565b5b9050919050565b60606000805461063b90613bd9565b80601f016020809104026020016040519081016040528092919081815260200182805461066790613bd9565b80156106b45780601f10610689576101008083540402835291602001916106b4565b820191906000526020600020905b81548152906001019060200180831161069757829003601f168201915b5050505050905090565b606060006106cc6007611bd8565b905060008060005b83811015610774573073ffffffffffffffffffffffffffffffffffffffff16600b600060018461070491906139fc565b815260200190815260200160002060020160009054906101000a900473ffffffffffffffffffffffffffffffffffffffff1673ffffffffffffffffffffffffffffffffffffffff16141561076157828061075d90613c3c565b9350505b808061076c90613c3c565b9150506106d4565b5060008267ffffffffffffffff8111156107b7577f4e487b7100000000000000000000000000000000000000000000000000000000600052604160045260246000fd5b6040519080825280602002602001820160405280156107f057816020015b6107dd612b27565b8152602001906001900390816107d55790505b50905060005b848110156109e0573073ffffffffffffffffffffffffffffffffffffffff16600b600060018461082691906139fc565b815260200190815260200160002060020160009054906101000a900473ffffffffffffffffffffffffffffffffffffffff1673ffffffffffffffffffffffffffffffffffffffff1614156109cd57600b600060018361088591906139fc565b81526020019081526020016000206040518060a0016040529081600082015481526020016001820160009054906101000a900473ffffffffffffffffffffffffffffffffffffffff1673ffffffffffffffffffffffffffffffffffffffff1673ffffffffffffffffffffffffffffffffffffffff1681526020016002820160009054906101000a900473ffffffffffffffffffffffffffffffffffffffff1673ffffffffffffffffffffffffffffffffffffffff1673ffffffffffffffffffffffffffffffffffffffff168152602001600382015481526020016004820160009054906101000a900460ff1615151515815250508284815181106109b2577f4e487b7100000000000000000000000000000000000000000000000000000000600052603260045260246000fd5b60200260200101819052506001836109ca91906139fc565b92505b80806109d890613c3c565b9150506107f6565b508094505050505090565b60006109f682611be6565b610a35576040517f08c379a0000000000000000000000000000000000000000000000000000000008152600401610a2c906137fe565b60405180910390fd5b6004600083815260200190815260200160002060009054906101000a900473ffffffffffffffffffffffffffffffffffffffff169050919050565b6000610a7b82610ebb565b90508073ffffffffffffffffffffffffffffffffffffffff168373ffffffffffffffffffffffffffffffffffffffff161415610aec576040517f08c379a0000000000000000000000000000000000000000000000000000000008152600401610ae39061383e565b60405180910390fd5b8073ffffffffffffffffffffffffffffffffffffffff16610b0b611c52565b73ffffffffffffffffffffffffffffffffffffffff161480610b3a5750610b3981610b34611c52565b611ada565b5b610b79576040517f08c379a0000000000000000000000000000000000000000000000000000000008152600401610b709061371e565b60405180910390fd5b610b838383611c5a565b505050565b6000600954905090565b610ba3610b9d611c52565b82611d13565b610be2576040517f08c379a0000000000000000000000000000000000000000000000000000000008152600401610bd99061387e565b60405180910390fd5b610bed838383611df1565b505050565b60606000610c006007611bd8565b90506000610c0e6008611bd8565b610c186007611bd8565b610c229190613add565b90506000808267ffffffffffffffff811115610c67577f4e487b7100000000000000000000000000000000000000000000000000000000600052604160045260246000fd5b604051908082528060200260200182016040528015610ca057816020015b610c8d612b27565b815260200190600190039081610c855790505b50905060005b84811015610e90573073ffffffffffffffffffffffffffffffffffffffff16600b6000600184610cd691906139fc565b815260200190815260200160002060020160009054906101000a900473ffffffffffffffffffffffffffffffffffffffff1673ffffffffffffffffffffffffffffffffffffffff161415610e7d57600b6000600183610d3591906139fc565b81526020019081526020016000206040518060a0016040529081600082015481526020016001820160009054906101000a900473ffffffffffffffffffffffffffffffffffffffff1673ffffffffffffffffffffffffffffffffffffffff1673ffffffffffffffffffffffffffffffffffffffff1681526020016002820160009054906101000a900473ffffffffffffffffffffffffffffffffffffffff1673ffffffffffffffffffffffffffffffffffffffff1673ffffffffffffffffffffffffffffffffffffffff168152602001600382015481526020016004820160009054906101000a900460ff161515151581525050828481518110610e62577f4e487b7100000000000000000000000000000000000000000000000000000000600052603260045260246000fd5b6020026020010181905250600183610e7a91906139fc565b92505b8080610e8890613c3c565b915050610ca6565b508094505050505090565b610eb6838383604051806020016040528060008152506111a9565b505050565b6000806002600084815260200190815260200160002060009054906101000a900473ffffffffffffffffffffffffffffffffffffffff169050600073ffffffffffffffffffffffffffffffffffffffff168173ffffffffffffffffffffffffffffffffffffffff161415610f64576040517f08c379a0000000000000000000000000000000000000000000000000000000008152600401610f5b9061375e565b60405180910390fd5b80915050919050565b60008073ffffffffffffffffffffffffffffffffffffffff168273ffffffffffffffffffffffffffffffffffffffff161415610fde576040517f08c379a0000000000000000000000000000000000000000000000000000000008152600401610fd59061373e565b60405180910390fd5b600360008373ffffffffffffffffffffffffffffffffffffffff1673ffffffffffffffffffffffffffffffffffffffff168152602001908152602001600020549050919050565b60006110316007612058565b600061103d6007611bd8565b9050611049338261206e565b6110538185612248565b61105d81846122bc565b8091505092915050565b60606001805461107690613bd9565b80601f01602080910402602001604051908101604052809291908181526020018280546110a290613bd9565b80156110ef5780601f106110c4576101008083540402835291602001916110ef565b820191906000526020600020905b8154815290600101906020018083116110d257829003601f168201915b5050505050905090565b61110b611104611c52565b83836124d3565b5050565b3373ffffffffffffffffffffffffffffffffffffffff16600a60009054906101000a900473ffffffffffffffffffffffffffffffffffffffff1673ffffffffffffffffffffffffffffffffffffffff161461119f576040517f08c379a00000000000000000000000000000000000000000000000000000000081526004016111969061389e565b60405180910390fd5b8060098190555050565b6111ba6111b4611c52565b83611d13565b6111f9576040517f08c379a00000000000000000000000000000000000000000000000000000000081526004016111f09061387e565b60405180910390fd5b61120584848484612640565b50505050565b600b600082815260200190815260200160002060030154341015611264576040517f08c379a000000000000000000000000000000000000000000000000000000000815260040161125b9061369e565b60405180910390fd5b6000600b600083815260200190815260200160002060010160009054906101000a900473ffffffffffffffffffffffffffffffffffffffff16905033600b600084815260200190815260200160002060020160006101000a81548173ffffffffffffffffffffffffffffffffffffffff021916908373ffffffffffffffffffffffffffffffffffffffff1602179055506000600b600084815260200190815260200160002060010160006101000a81548173ffffffffffffffffffffffffffffffffffffffff021916908373ffffffffffffffffffffffffffffffffffffffff1602179055506001600b600084815260200190815260200160002060040160006101000a81548160ff021916908315150217905550611384303384611df1565b600a60009054906101000a900473ffffffffffffffffffffffffffffffffffffffff1673ffffffffffffffffffffffffffffffffffffffff166108fc6009549081150290604051600060405180830381858888f193505050501580156113ee573d6000803e3d6000fd5b508073ffffffffffffffffffffffffffffffffffffffff166108fc349081150290604051600060405180830381858888f19350505050158015611435573d6000803e3d6000fd5b506114406008612058565b5050565b6000600b6000838152602001908152602001600020600301549050919050565b606061146f82611be6565b6114ae576040517f08c379a00000000000000000000000000000000000000000000000000000000081526004016114a5906137be565b60405180910390fd5b60006006600084815260200190815260200160002080546114ce90613bd9565b80601f01602080910402602001604051908101604052809291908181526020018280546114fa90613bd9565b80156115475780601f1061151c57610100808354040283529160200191611547565b820191906000526020600020905b81548152906001019060200180831161152a57829003601f168201915b50505050509050600061155861269c565b905060008151141561156e5781925050506115b1565b6000825111156115a357808260405160200161158b9291906134ef565b604051602081830303815290604052925050506115b1565b6115ac846126b3565b925050505b919050565b606060006115c46007611bd8565b905060008060005b8381101561166c578573ffffffffffffffffffffffffffffffffffffffff16600b60006001846115fc91906139fc565b815260200190815260200160002060020160009054906101000a900473ffffffffffffffffffffffffffffffffffffffff1673ffffffffffffffffffffffffffffffffffffffff16141561165957828061165590613c3c565b9350505b808061166490613c3c565b9150506115cc565b5060008267ffffffffffffffff8111156116af577f4e487b7100000000000000000000000000000000000000000000000000000000600052604160045260246000fd5b6040519080825280602002602001820160405280156116e857816020015b6116d5612b27565b8152602001906001900390816116cd5790505b50905060005b848110156118d8578673ffffffffffffffffffffffffffffffffffffffff16600b600060018461171e91906139fc565b815260200190815260200160002060020160009054906101000a900473ffffffffffffffffffffffffffffffffffffffff1673ffffffffffffffffffffffffffffffffffffffff1614156118c557600b600060018361177d91906139fc565b81526020019081526020016000206040518060a0016040529081600082015481526020016001820160009054906101000a900473ffffffffffffffffffffffffffffffffffffffff1673ffffffffffffffffffffffffffffffffffffffff1673ffffffffffffffffffffffffffffffffffffffff1681526020016002820160009054906101000a900473ffffffffffffffffffffffffffffffffffffffff1673ffffffffffffffffffffffffffffffffffffffff1673ffffffffffffffffffffffffffffffffffffffff168152602001600382015481526020016004820160009054906101000a900460ff1615151515815250508284815181106118aa577f4e487b7100000000000000000000000000000000000000000000000000000000600052603260045260246000fd5b60200260200101819052506001836118c291906139fc565b92505b80806118d090613c3c565b9150506116ee565b5080945050505050919050565b3373ffffffffffffffffffffffffffffffffffffffff16600b600084815260200190815260200160002060020160009054906101000a900473ffffffffffffffffffffffffffffffffffffffff1673ffffffffffffffffffffffffffffffffffffffff1614611989576040517f08c379a0000000000000000000000000000000000000000000000000000000008152600401611980906137de565b60405180910390fd5b60095434146119cd576040517f08c379a00000000000000000000000000000000000000000000000000000000081526004016119c49061385e565b60405180910390fd5b6000600b600084815260200190815260200160002060040160006101000a81548160ff02191690831515021790555080600b60008481526020019081526020016000206003018190555033600b600084815260200190815260200160002060010160006101000a81548173ffffffffffffffffffffffffffffffffffffffff021916908373ffffffffffffffffffffffffffffffffffffffff16021790555030600b600084815260200190815260200160002060020160006101000a81548173ffffffffffffffffffffffffffffffffffffffff021916908373ffffffffffffffffffffffffffffffffffffffff160217905550611acb600861275a565b611ad6333084611df1565b5050565b6000600560008473ffffffffffffffffffffffffffffffffffffffff1673ffffffffffffffffffffffffffffffffffffffff16815260200190815260200160002060008373ffffffffffffffffffffffffffffffffffffffff1673ffffffffffffffffffffffffffffffffffffffff16815260200190815260200160002060009054906101000a900460ff16905092915050565b60007f01ffc9a7000000000000000000000000000000000000000000000000000000007bffffffffffffffffffffffffffffffffffffffffffffffffffffffff1916827bffffffffffffffffffffffffffffffffffffffffffffffffffffffff1916149050919050565b600081600001549050919050565b60008073ffffffffffffffffffffffffffffffffffffffff166002600084815260200190815260200160002060009054906101000a900473ffffffffffffffffffffffffffffffffffffffff1673ffffffffffffffffffffffffffffffffffffffff1614159050919050565b600033905090565b816004600083815260200190815260200160002060006101000a81548173ffffffffffffffffffffffffffffffffffffffff021916908373ffffffffffffffffffffffffffffffffffffffff160217905550808273ffffffffffffffffffffffffffffffffffffffff16611ccd83610ebb565b73ffffffffffffffffffffffffffffffffffffffff167f8c5be1e5ebec7d5bd14f71427d1e84f3dd0314c0f7b2291e5b200ac8c7c3b92560405160405180910390a45050565b6000611d1e82611be6565b611d5d576040517f08c379a0000000000000000000000000000000000000000000000000000000008152600401611d54906136fe565b60405180910390fd5b6000611d6883610ebb565b90508073ffffffffffffffffffffffffffffffffffffffff168473ffffffffffffffffffffffffffffffffffffffff161480611daa5750611da98185611ada565b5b80611de857508373ffffffffffffffffffffffffffffffffffffffff16611dd0846109eb565b73ffffffffffffffffffffffffffffffffffffffff16145b91505092915050565b8273ffffffffffffffffffffffffffffffffffffffff16611e1182610ebb565b73ffffffffffffffffffffffffffffffffffffffff1614611e67576040517f08c379a0000000000000000000000000000000000000000000000000000000008152600401611e5e9061365e565b60405180910390fd5b600073ffffffffffffffffffffffffffffffffffffffff168273ffffffffffffffffffffffffffffffffffffffff161415611ed7576040517f08c379a0000000000000000000000000000000000000000000000000000000008152600401611ece906136be565b60405180910390fd5b611ee28383836127b6565b611eed600082611c5a565b6001600360008573ffffffffffffffffffffffffffffffffffffffff1673ffffffffffffffffffffffffffffffffffffffff1681526020019081526020016000206000828254611f3d9190613add565b925050819055506001600360008473ffffffffffffffffffffffffffffffffffffffff1673ffffffffffffffffffffffffffffffffffffffff1681526020019081526020016000206000828254611f9491906139fc565b92505081905550816002600083815260200190815260200160002060006101000a81548173ffffffffffffffffffffffffffffffffffffffff021916908373ffffffffffffffffffffffffffffffffffffffff160217905550808273ffffffffffffffffffffffffffffffffffffffff168473ffffffffffffffffffffffffffffffffffffffff167fddf252ad1be2c89b69c2b068fc378daa952ba7f163c4a11628f55a4df523b3ef60405160405180910390a46120538383836127bb565b505050565b6001816000016000828254019250508190555050565b600073ffffffffffffffffffffffffffffffffffffffff168273ffffffffffffffffffffffffffffffffffffffff1614156120de576040517f08c379a00000000000000000000000000000000000000000000000000000000081526004016120d59061379e565b60405180910390fd5b6120e781611be6565b15612127576040517f08c379a000000000000000000000000000000000000000000000000000000000815260040161211e9061367e565b60405180910390fd5b612133600083836127b6565b6001600360008473ffffffffffffffffffffffffffffffffffffffff1673ffffffffffffffffffffffffffffffffffffffff168152602001908152602001600020600082825461218391906139fc565b92505081905550816002600083815260200190815260200160002060006101000a81548173ffffffffffffffffffffffffffffffffffffffff021916908373ffffffffffffffffffffffffffffffffffffffff160217905550808273ffffffffffffffffffffffffffffffffffffffff16600073ffffffffffffffffffffffffffffffffffffffff167fddf252ad1be2c89b69c2b068fc378daa952ba7f163c4a11628f55a4df523b3ef60405160405180910390a4612244600083836127bb565b5050565b61225182611be6565b612290576040517f08c379a00000000000000000000000000000000000000000000000000000000081526004016122879061377e565b60405180910390fd5b806006600084815260200190815260200160002090805190602001906122b7929190612b84565b505050565b600081116122ff576040517f08c379a00000000000000000000000000000000000000000000000000000000081526004016122f6906138be565b60405180910390fd5b600954341015612344576040517f08c379a000000000000000000000000000000000000000000000000000000000815260040161233b9061385e565b60405180910390fd5b6040518060a001604052808381526020013373ffffffffffffffffffffffffffffffffffffffff1681526020013073ffffffffffffffffffffffffffffffffffffffff168152602001670de0b6b3a7640000836123a19190613a83565b815260200160001515815250600b60008481526020019081526020016000206000820151816000015560208201518160010160006101000a81548173ffffffffffffffffffffffffffffffffffffffff021916908373ffffffffffffffffffffffffffffffffffffffff16021790555060408201518160020160006101000a81548173ffffffffffffffffffffffffffffffffffffffff021916908373ffffffffffffffffffffffffffffffffffffffff1602179055506060820151816003015560808201518160040160006101000a81548160ff021916908315150217905550905050612490333084611df1565b817fb640004f1d14576d0c209e240cad0410e0d8c0c33a09375861fbadae2588a98d33308460006040516124c7949392919061352e565b60405180910390a25050565b8173ffffffffffffffffffffffffffffffffffffffff168373ffffffffffffffffffffffffffffffffffffffff161415612542576040517f08c379a0000000000000000000000000000000000000000000000000000000008152600401612539906136de565b60405180910390fd5b80600560008573ffffffffffffffffffffffffffffffffffffffff1673ffffffffffffffffffffffffffffffffffffffff16815260200190815260200160002060008473ffffffffffffffffffffffffffffffffffffffff1673ffffffffffffffffffffffffffffffffffffffff16815260200190815260200160002060006101000a81548160ff0219169083151502179055508173ffffffffffffffffffffffffffffffffffffffff168373ffffffffffffffffffffffffffffffffffffffff167f17307eab39ab6107e8899845ad3d59bd9653f200f220920489ca2b5937696c318360405161263391906135e1565b60405180910390a3505050565b61264b848484611df1565b612657848484846127c0565b612696576040517f08c379a000000000000000000000000000000000000000000000000000000000815260040161268d9061363e565b60405180910390fd5b50505050565b606060405180602001604052806000815250905090565b60606126be82611be6565b6126fd576040517f08c379a00000000000000000000000000000000000000000000000000000000081526004016126f49061381e565b60405180910390fd5b600061270761269c565b905060008151116127275760405180602001604052806000815250612752565b8061273184612957565b6040516020016127429291906134ef565b6040516020818303038152906040525b915050919050565b600081600001549050600081116127a6576040517f08c379a000000000000000000000000000000000000000000000000000000000815260040161279d9061361e565b60405180910390fd5b6001810382600001819055505050565b505050565b505050565b60006127e18473ffffffffffffffffffffffffffffffffffffffff16612b04565b1561294a578373ffffffffffffffffffffffffffffffffffffffff1663150b7a0261280a611c52565b8786866040518563ffffffff1660e01b815260040161282c9493929190613573565b602060405180830381600087803b15801561284657600080fd5b505af192505050801561287757506040513d601f19601f820116820180604052508101906128749190612f30565b60015b6128fa573d80600081146128a7576040519150601f19603f3d011682016040523d82523d6000602084013e6128ac565b606091505b506000815114156128f2576040517f08c379a00000000000000000000000000000000000000000000000000000000081526004016128e99061363e565b60405180910390fd5b805181602001fd5b63150b7a0260e01b7bffffffffffffffffffffffffffffffffffffffffffffffffffffffff1916817bffffffffffffffffffffffffffffffffffffffffffffffffffffffff19161491505061294f565b600190505b949350505050565b6060600082141561299f576040518060400160405280600181526020017f30000000000000000000000000000000000000000000000000000000000000008152509050612aff565b600082905060005b600082146129d15780806129ba90613c3c565b915050600a826129ca9190613a52565b91506129a7565b60008167ffffffffffffffff811115612a13577f4e487b7100000000000000000000000000000000000000000000000000000000600052604160045260246000fd5b6040519080825280601f01601f191660200182016040528015612a455781602001600182028036833780820191505090505b5090505b60008514612af857600182612a5e9190613add565b9150600a85612a6d9190613c85565b6030612a7991906139fc565b60f81b818381518110612ab5577f4e487b7100000000000000000000000000000000000000000000000000000000600052603260045260246000fd5b60200101907effffffffffffffffffffffffffffffffffffffffffffffffffffffffffffff1916908160001a905350600a85612af19190613a52565b9450612a49565b8093505050505b919050565b6000808273ffffffffffffffffffffffffffffffffffffffff163b119050919050565b6040518060a0016040528060008152602001600073ffffffffffffffffffffffffffffffffffffffff168152602001600073ffffffffffffffffffffffffffffffffffffffff168152602001600081526020016000151581525090565b828054612b9090613bd9565b90600052602060002090601f016020900481019282612bb25760008555612bf9565b82601f10612bcb57805160ff1916838001178555612bf9565b82800160010185558215612bf9579182015b82811115612bf8578251825591602001919060010190612bdd565b5b509050612c069190612c0a565b5090565b5b80821115612c23576000816000905550600101612c0b565b5090565b6000612c3a612c358461391e565b6138f9565b905082815260208101848484011115612c5257600080fd5b612c5d848285613b97565b509392505050565b6000612c78612c738461394f565b6138f9565b905082815260208101848484011115612c9057600080fd5b612c9b848285613b97565b509392505050565b600081359050612cb28161438f565b92915050565b600081359050612cc7816143a6565b92915050565b600081359050612cdc816143bd565b92915050565b600081519050612cf1816143bd565b92915050565b600082601f830112612d0857600080fd5b8135612d18848260208601612c27565b91505092915050565b600082601f830112612d3257600080fd5b8135612d42848260208601612c65565b91505092915050565b600081359050612d5a816143d4565b92915050565b600060208284031215612d7257600080fd5b6000612d8084828501612ca3565b91505092915050565b60008060408385031215612d9c57600080fd5b6000612daa85828601612ca3565b9250506020612dbb85828601612ca3565b9150509250929050565b600080600060608486031215612dda57600080fd5b6000612de886828701612ca3565b9350506020612df986828701612ca3565b9250506040612e0a86828701612d4b565b9150509250925092565b60008060008060808587031215612e2a57600080fd5b6000612e3887828801612ca3565b9450506020612e4987828801612ca3565b9350506040612e5a87828801612d4b565b925050606085013567ffffffffffffffff811115612e7757600080fd5b612e8387828801612cf7565b91505092959194509250565b60008060408385031215612ea257600080fd5b6000612eb085828601612ca3565b9250506020612ec185828601612cb8565b9150509250929050565b60008060408385031215612ede57600080fd5b6000612eec85828601612ca3565b9250506020612efd85828601612d4b565b9150509250929050565b600060208284031215612f1957600080fd5b6000612f2784828501612ccd565b91505092915050565b600060208284031215612f4257600080fd5b6000612f5084828501612ce2565b91505092915050565b60008060408385031215612f6c57600080fd5b600083013567ffffffffffffffff811115612f8657600080fd5b612f9285828601612d21565b9250506020612fa385828601612d4b565b9150509250929050565b600060208284031215612fbf57600080fd5b6000612fcd84828501612d4b565b91505092915050565b60008060408385031215612fe957600080fd5b6000612ff785828601612d4b565b925050602061300885828601612d4b565b9150509250929050565b600061301e8383613469565b60a08301905092915050565b61303381613b23565b82525050565b61304281613b11565b82525050565b600061305382613990565b61305d81856139be565b935061306883613980565b8060005b838110156130995781516130808882613012565b975061308b836139b1565b92505060018101905061306c565b5085935050505092915050565b6130af81613b35565b82525050565b6130be81613b35565b82525050565b60006130cf8261399b565b6130d981856139cf565b93506130e9818560208601613ba6565b6130f281613d72565b840191505092915050565b6000613108826139a6565b61311281856139e0565b9350613122818560208601613ba6565b61312b81613d72565b840191505092915050565b6000613141826139a6565b61314b81856139f1565b935061315b818560208601613ba6565b80840191505092915050565b6000613174601b836139e0565b915061317f82613d83565b602082019050919050565b60006131976032836139e0565b91506131a282613dac565b604082019050919050565b60006131ba6025836139e0565b91506131c582613dfb565b604082019050919050565b60006131dd601c836139e0565b91506131e882613e4a565b602082019050919050565b6000613200602d836139e0565b915061320b82613e73565b604082019050919050565b60006132236024836139e0565b915061322e82613ec2565b604082019050919050565b60006132466019836139e0565b915061325182613f11565b602082019050919050565b6000613269602c836139e0565b915061327482613f3a565b604082019050919050565b600061328c6038836139e0565b915061329782613f89565b604082019050919050565b60006132af602a836139e0565b91506132ba82613fd8565b604082019050919050565b60006132d26029836139e0565b91506132dd82614027565b604082019050919050565b60006132f5602e836139e0565b915061330082614076565b604082019050919050565b60006133186020836139e0565b9150613323826140c5565b602082019050919050565b600061333b6031836139e0565b9150613346826140ee565b604082019050919050565b600061335e602a836139e0565b91506133698261413d565b604082019050919050565b6000613381602c836139e0565b915061338c8261418c565b604082019050919050565b60006133a4602f836139e0565b91506133af826141db565b604082019050919050565b60006133c76021836139e0565b91506133d28261422a565b604082019050919050565b60006133ea6024836139e0565b91506133f582614279565b604082019050919050565b600061340d6031836139e0565b9150613418826142c8565b604082019050919050565b60006134306030836139e0565b915061343b82614317565b604082019050919050565b6000613453601c836139e0565b915061345e82614366565b602082019050919050565b60a08201600082015161347f60008501826134d1565b506020820151613492602085018261302a565b5060408201516134a5604085018261302a565b5060608201516134b860608501826134d1565b5060808201516134cb60808501826130a6565b50505050565b6134da81613b8d565b82525050565b6134e981613b8d565b82525050565b60006134fb8285613136565b91506135078284613136565b91508190509392505050565b60006020820190506135286000830184613039565b92915050565b60006080820190506135436000830187613039565b6135506020830186613039565b61355d60408301856134e0565b61356a60608301846130b5565b95945050505050565b60006080820190506135886000830187613039565b6135956020830186613039565b6135a260408301856134e0565b81810360608301526135b481846130c4565b905095945050505050565b600060208201905081810360008301526135d98184613048565b905092915050565b60006020820190506135f660008301846130b5565b92915050565b6000602082019050818103600083015261361681846130fd565b905092915050565b6000602082019050818103600083015261363781613167565b9050919050565b600060208201905081810360008301526136578161318a565b9050919050565b60006020820190508181036000830152613677816131ad565b9050919050565b60006020820190508181036000830152613697816131d0565b9050919050565b600060208201905081810360008301526136b7816131f3565b9050919050565b600060208201905081810360008301526136d781613216565b9050919050565b600060208201905081810360008301526136f781613239565b9050919050565b600060208201905081810360008301526137178161325c565b9050919050565b600060208201905081810360008301526137378161327f565b9050919050565b60006020820190508181036000830152613757816132a2565b9050919050565b60006020820190508181036000830152613777816132c5565b9050919050565b60006020820190508181036000830152613797816132e8565b9050919050565b600060208201905081810360008301526137b78161330b565b9050919050565b600060208201905081810360008301526137d78161332e565b9050919050565b600060208201905081810360008301526137f781613351565b9050919050565b6000602082019050818103600083015261381781613374565b9050919050565b6000602082019050818103600083015261383781613397565b9050919050565b60006020820190508181036000830152613857816133ba565b9050919050565b60006020820190508181036000830152613877816133dd565b9050919050565b6000602082019050818103600083015261389781613400565b9050919050565b600060208201905081810360008301526138b781613423565b9050919050565b600060208201905081810360008301526138d781613446565b9050919050565b60006020820190506138f360008301846134e0565b92915050565b6000613903613914565b905061390f8282613c0b565b919050565b6000604051905090565b600067ffffffffffffffff82111561393957613938613d43565b5b61394282613d72565b9050602081019050919050565b600067ffffffffffffffff82111561396a57613969613d43565b5b61397382613d72565b9050602081019050919050565b6000819050602082019050919050565b600081519050919050565b600081519050919050565b600081519050919050565b6000602082019050919050565b600082825260208201905092915050565b600082825260208201905092915050565b600082825260208201905092915050565b600081905092915050565b6000613a0782613b8d565b9150613a1283613b8d565b9250827fffffffffffffffffffffffffffffffffffffffffffffffffffffffffffffffff03821115613a4757613a46613cb6565b5b828201905092915050565b6000613a5d82613b8d565b9150613a6883613b8d565b925082613a7857613a77613ce5565b5b828204905092915050565b6000613a8e82613b8d565b9150613a9983613b8d565b9250817fffffffffffffffffffffffffffffffffffffffffffffffffffffffffffffffff0483118215151615613ad257613ad1613cb6565b5b828202905092915050565b6000613ae882613b8d565b9150613af383613b8d565b925082821015613b0657613b05613cb6565b5b828203905092915050565b6000613b1c82613b6d565b9050919050565b6000613b2e82613b6d565b9050919050565b60008115159050919050565b60007fffffffff0000000000000000000000000000000000000000000000000000000082169050919050565b600073ffffffffffffffffffffffffffffffffffffffff82169050919050565b6000819050919050565b82818337600083830152505050565b60005b83811015613bc4578082015181840152602081019050613ba9565b83811115613bd3576000848401525b50505050565b60006002820490506001821680613bf157607f821691505b60208210811415613c0557613c04613d14565b5b50919050565b613c1482613d72565b810181811067ffffffffffffffff82111715613c3357613c32613d43565b5b80604052505050565b6000613c4782613b8d565b91507fffffffffffffffffffffffffffffffffffffffffffffffffffffffffffffffff821415613c7a57613c79613cb6565b5b600182019050919050565b6000613c9082613b8d565b9150613c9b83613b8d565b925082613cab57613caa613ce5565b5b828206905092915050565b7f4e487b7100000000000000000000000000000000000000000000000000000000600052601160045260246000fd5b7f4e487b7100000000000000000000000000000000000000000000000000000000600052601260045260246000fd5b7f4e487b7100000000000000000000000000000000000000000000000000000000600052602260045260246000fd5b7f4e487b7100000000000000000000000000000000000000000000000000000000600052604160045260246000fd5b6000601f19601f8301169050919050565b7f436f756e7465723a2064656372656d656e74206f766572666c6f770000000000600082015250565b7f4552433732313a207472616e7366657220746f206e6f6e20455243373231526560008201527f63656976657220696d706c656d656e7465720000000000000000000000000000602082015250565b7f4552433732313a207472616e736665722066726f6d20696e636f72726563742060008201527f6f776e6572000000000000000000000000000000000000000000000000000000602082015250565b7f4552433732313a20746f6b656e20616c7265616479206d696e74656400000000600082015250565b7f546f6b656e2053656c6c696e672050726963652043726974657269612049732060008201527f4e6f742053617469736669656400000000000000000000000000000000000000602082015250565b7f4552433732313a207472616e7366657220746f20746865207a65726f2061646460008201527f7265737300000000000000000000000000000000000000000000000000000000602082015250565b7f4552433732313a20617070726f766520746f2063616c6c657200000000000000600082015250565b7f4552433732313a206f70657261746f7220717565727920666f72206e6f6e657860008201527f697374656e7420746f6b656e0000000000000000000000000000000000000000602082015250565b7f4552433732313a20617070726f76652063616c6c6572206973206e6f74206f7760008201527f6e6572206e6f7220617070726f76656420666f7220616c6c0000000000000000602082015250565b7f4552433732313a2062616c616e636520717565727920666f7220746865207a6560008201527f726f206164647265737300000000000000000000000000000000000000000000602082015250565b7f4552433732313a206f776e657220717565727920666f72206e6f6e657869737460008201527f656e7420746f6b656e0000000000000000000000000000000000000000000000602082015250565b7f45524337323155524953746f726167653a2055524920736574206f66206e6f6e60008201527f6578697374656e7420746f6b656e000000000000000000000000000000000000602082015250565b7f4552433732313a206d696e7420746f20746865207a65726f2061646472657373600082015250565b7f45524337323155524953746f726167653a2055524920717565727920666f722060008201527f6e6f6e6578697374656e7420746f6b656e000000000000000000000000000000602082015250565b7f4f6e6c79206974656d206f776e65722063616e20706572666f726d207468697360008201527f206f7065726174696f6e00000000000000000000000000000000000000000000602082015250565b7f4552433732313a20617070726f76656420717565727920666f72206e6f6e657860008201527f697374656e7420746f6b656e0000000000000000000000000000000000000000602082015250565b7f4552433732314d657461646174613a2055524920717565727920666f72206e6f60008201527f6e6578697374656e7420746f6b656e0000000000000000000000000000000000602082015250565b7f4552433732313a20617070726f76616c20746f2063757272656e74206f776e6560008201527f7200000000000000000000000000000000000000000000000000000000000000602082015250565b7f5072696365206d75737420626520657175616c20746f206c697374696e67207060008201527f7269636500000000000000000000000000000000000000000000000000000000602082015250565b7f4552433732313a207472616e736665722063616c6c6572206973206e6f74206f60008201527f776e6572206e6f7220617070726f766564000000000000000000000000000000602082015250565b7f4f6e6c79206d61726b6574706c616365206f776e65722063616e20757064617460008201527f65206c697374696e672070726963652e00000000000000000000000000000000602082015250565b7f5072696365206d757374206265206174206c6561737420312077656900000000600082015250565b61439881613b11565b81146143a357600080fd5b50565b6143af81613b35565b81146143ba57600080fd5b50565b6143c681613b41565b81146143d157600080fd5b50565b6143dd81613b8d565b81146143e857600080fd5b5056fea26469706673582212200c658e03f25653e6835edddb9debc39e598660f78d7d933c7d69610aa9002be164736f6c63430008040033",
  "linkReferences": {},
  "deployedLinkReferences": {}
}